{"abi":[{"type":"function","name":"deactivateSlot","inputs":[{"name":"slotId","type":"uint256","internalType":"uint256"}],"outputs":[],"stateMutability":"nonpayable"},{"type":"function","name":"getSlot","inputs":[{"name":"slotId","type":"uint256","internalType":"uint256"}],"outputs":[{"name":"","type":"tuple","internalType":"struct AdRegistry.Slot","components":[{"name":"creator","type":"address","internalType":"address"},{"name":"price","type":"uint256","internalType":"uint256"},{"name":"description","type":"string","internalType":"string"},{"name":"active","type":"bool","internalType":"bool"}]}],"stateMutability":"view"},{"type":"function","name":"listSlot","inputs":[{"name":"price","type":"uint256","internalType":"uint256"},{"name":"description","type":"string","internalType":"string"}],"outputs":[{"name":"slotId","type":"uint256","internalType":"uint256"}],"stateMutability":"nonpayable"},{"type":"function","name":"nextSlotId","inputs":[],"outputs":[{"name":"","type":"uint256","internalType":"uint256"}],"stateMutability":"view"},{"type":"function","name":"slots","inputs":[{"name":"","type":"uint256","internalType":"uint256"}],"outputs":[{"name":"creator","type":"address","internalType":"address"},{"name":"price","type":"uint256","internalType":"uint256"},{"name":"description","type":"string","internalType":"string"},{"name":"active","type":"bool","internalType":"bool"}],"stateMutability":"view"},{"type":"event","name":"SlotDeactivated","inputs":[{"name":"slotId","type":"uint256","indexed":true,"internalType":"uint256"}],"anonymous":false},{"type":"event","name":"SlotListed","inputs":[{"name":"slotId","type":"uint256","indexed":true,"internalType":"uint256"},{"name":"creator","type":"address","indexed":true,"internalType":"address"},{"name":"price","type":"uint256","indexed":false,"internalType":"uint256"},{"name":"description","type":"string","indexed":false,"internalType":"string"}],"anonymous":false}],"bytecode":{"object":"0x608060405234801561000f575f80fd5b50610f2e8061001d5f395ff3fe608060405234801561000f575f80fd5b5060043610610055575f3560e01c8063387dd9e9146100595780637c74b4291461008c5780637eba7ba6146100a8578063804ebda7146100d85780638c418180146100f6575b5f80fd5b610073600480360381019061006e91906106b9565b610126565b60405161008394939291906107d6565b60405180910390f35b6100a660048036038101906100a191906106b9565b610202565b005b6100c260048036038101906100bd91906106b9565b610341565b6040516100cf91906108f5565b60405180910390f35b6100e0610473565b6040516100ed9190610915565b60405180910390f35b610110600480360381019061010b919061098f565b610479565b60405161011d9190610915565b60405180910390f35b5f602052805f5260405f205f91509050805f015f9054906101000a900473ffffffffffffffffffffffffffffffffffffffff169080600101549080600201805461016f90610a19565b80601f016020809104026020016040519081016040528092919081815260200182805461019b90610a19565b80156101e65780601f106101bd576101008083540402835291602001916101e6565b820191905f5260205f20905b8154815290600101906020018083116101c957829003601f168201915b505050505090806003015f9054906101000a900460ff16905084565b5f805f8381526020019081526020015f2090503373ffffffffffffffffffffffffffffffffffffffff16815f015f9054906101000a900473ffffffffffffffffffffffffffffffffffffffff1673ffffffffffffffffffffffffffffffffffffffff16146102a5576040517f08c379a000000000000000000000000000000000000000000000000000000000815260040161029c90610a93565b60405180910390fd5b806003015f9054906101000a900460ff166102f5576040517f08c379a00000000000000000000000000000000000000000000000000000000081526004016102ec90610afb565b60405180910390fd5b5f816003015f6101000a81548160ff021916908315150217905550817f6b62697cd5a501bb3486f9301575ea9f7c0a176bd7cb1ee6ddefef8d355d656960405160405180910390a25050565b610349610641565b5f808381526020019081526020015f206040518060800160405290815f82015f9054906101000a900473ffffffffffffffffffffffffffffffffffffffff1673ffffffffffffffffffffffffffffffffffffffff1673ffffffffffffffffffffffffffffffffffffffff168152602001600182015481526020016002820180546103d290610a19565b80601f01602080910402602001604051908101604052809291908181526020018280546103fe90610a19565b80156104495780601f1061042057610100808354040283529160200191610449565b820191905f5260205f20905b81548152906001019060200180831161042c57829003601f168201915b50505050508152602001600382015f9054906101000a900460ff1615151515815250509050919050565b60015481565b5f8084116104bc576040517f08c379a00000000000000000000000000000000000000000000000000000000081526004016104b390610b63565b60405180910390fd5b60015f8154809291906104ce90610bae565b91905055905060405180608001604052803373ffffffffffffffffffffffffffffffffffffffff16815260200185815260200184848080601f0160208091040260200160405190810160405280939291908181526020018383808284375f81840152601f19601f820116905080830192505050505050508152602001600115158152505f808381526020019081526020015f205f820151815f015f6101000a81548173ffffffffffffffffffffffffffffffffffffffff021916908373ffffffffffffffffffffffffffffffffffffffff1602179055506020820151816001015560408201518160020190816105c49190610dbf565b506060820151816003015f6101000a81548160ff0219169083151502179055509050503373ffffffffffffffffffffffffffffffffffffffff16817f048454e23423fd9d8ead3aa201b4f345a1fe4040060adf219edc12fc290b9fbd86868660405161063293929190610ec8565b60405180910390a39392505050565b60405180608001604052805f73ffffffffffffffffffffffffffffffffffffffff1681526020015f8152602001606081526020015f151581525090565b5f80fd5b5f80fd5b5f819050919050565b61069881610686565b81146106a2575f80fd5b50565b5f813590506106b38161068f565b92915050565b5f602082840312156106ce576106cd61067e565b5b5f6106db848285016106a5565b91505092915050565b5f73ffffffffffffffffffffffffffffffffffffffff82169050919050565b5f61070d826106e4565b9050919050565b61071d81610703565b82525050565b61072c81610686565b82525050565b5f81519050919050565b5f82825260208201905092915050565b5f5b8381101561076957808201518184015260208101905061074e565b5f8484015250505050565b5f601f19601f8301169050919050565b5f61078e82610732565b610798818561073c565b93506107a881856020860161074c565b6107b181610774565b840191505092915050565b5f8115159050919050565b6107d0816107bc565b82525050565b5f6080820190506107e95f830187610714565b6107f66020830186610723565b81810360408301526108088185610784565b905061081760608301846107c7565b95945050505050565b61082981610703565b82525050565b61083881610686565b82525050565b5f82825260208201905092915050565b5f61085882610732565b610862818561083e565b935061087281856020860161074c565b61087b81610774565b840191505092915050565b61088f816107bc565b82525050565b5f608083015f8301516108aa5f860182610820565b5060208301516108bd602086018261082f565b50604083015184820360408601526108d5828261084e565b91505060608301516108ea6060860182610886565b508091505092915050565b5f6020820190508181035f83015261090d8184610895565b905092915050565b5f6020820190506109285f830184610723565b92915050565b5f80fd5b5f80fd5b5f80fd5b5f8083601f84011261094f5761094e61092e565b5b8235905067ffffffffffffffff81111561096c5761096b610932565b5b60208301915083600182028301111561098857610987610936565b5b9250929050565b5f805f604084860312156109a6576109a561067e565b5b5f6109b3868287016106a5565b935050602084013567ffffffffffffffff8111156109d4576109d3610682565b5b6109e08682870161093a565b92509250509250925092565b7f4e487b71000000000000000000000000000000000000000000000000000000005f52602260045260245ffd5b5f6002820490506001821680610a3057607f821691505b602082108103610a4357610a426109ec565b5b50919050565b7f4e6f7420736c6f74206f776e65720000000000000000000000000000000000005f82015250565b5f610a7d600e8361073c565b9150610a8882610a49565b602082019050919050565b5f6020820190508181035f830152610aaa81610a71565b9050919050565b7f416c726561647920696e616374697665000000000000000000000000000000005f82015250565b5f610ae560108361073c565b9150610af082610ab1565b602082019050919050565b5f6020820190508181035f830152610b1281610ad9565b9050919050565b7f5072696365206d757374206265203e20300000000000000000000000000000005f82015250565b5f610b4d60118361073c565b9150610b5882610b19565b602082019050919050565b5f6020820190508181035f830152610b7a81610b41565b9050919050565b7f4e487b71000000000000000000000000000000000000000000000000000000005f52601160045260245ffd5b5f610bb882610686565b91507fffffffffffffffffffffffffffffffffffffffffffffffffffffffffffffffff8203610bea57610be9610b81565b5b600182019050919050565b7f4e487b71000000000000000000000000000000000000000000000000000000005f52604160045260245ffd5b5f819050815f5260205f209050919050565b5f6020601f8301049050919050565b5f82821b905092915050565b5f60088302610c7e7fffffffffffffffffffffffffffffffffffffffffffffffffffffffffffffffff82610c43565b610c888683610c43565b95508019841693508086168417925050509392505050565b5f819050919050565b5f610cc3610cbe610cb984610686565b610ca0565b610686565b9050919050565b5f819050919050565b610cdc83610ca9565b610cf0610ce882610cca565b848454610c4f565b825550505050565b5f90565b610d04610cf8565b610d0f818484610cd3565b505050565b5b81811015610d3257610d275f82610cfc565b600181019050610d15565b5050565b601f821115610d7757610d4881610c22565b610d5184610c34565b81016020851015610d60578190505b610d74610d6c85610c34565b830182610d14565b50505b505050565b5f82821c905092915050565b5f610d975f1984600802610d7c565b1980831691505092915050565b5f610daf8383610d88565b9150826002028217905092915050565b610dc882610732565b67ffffffffffffffff811115610de157610de0610bf5565b5b610deb8254610a19565b610df6828285610d36565b5f60209050601f831160018114610e27575f8415610e15578287015190505b610e1f8582610da4565b865550610e86565b601f198416610e3586610c22565b5f5b82811015610e5c57848901518255600182019150602085019450602081019050610e37565b86831015610e795784890151610e75601f891682610d88565b8355505b6001600288020188555050505b505050505050565b828183375f83830152505050565b5f610ea7838561073c565b9350610eb4838584610e8e565b610ebd83610774565b840190509392505050565b5f604082019050610edb5f830186610723565b8181036020830152610eee818486610e9c565b905094935050505056fea2646970667358221220e652806d04f15f87d81d075f06910aa68ad3a35a3539cef36b03f3ede2ef8a6864736f6c63430008180033","linkReferences":{}},"methodIdentifiers":{"deactivateSlot(uint256)":"7c74b429","getSlot(uint256)":"7eba7ba6","listSlot(uint256,string)":"8c418180","nextSlotId()":"804ebda7","slots(uint256)":"387dd9e9"},"id":0}